:06066A00120626020497AF
:1006260053D9BF1205FC1205E61204EC12000602AD
:02063600065963
:1005FC00E4FFFE75FFA00FBF00010EEF64144E70F8
:04060C00F575EF028F
:0106100022C7
:1004EC00E4FFFE53E3DF75B61043E32075AB800FDA
:1004FC00BF00010EEF64144E70F543ABC0E5AB309A
:08050C00E5FB75A90275B28739
:0105140022C4
:1005E60075F2C375A43875D4CF75D5FF75D6FF756A
:0605F600E10175E2C022E4
:0400060075D113227B
:03008600011B005B
:0A0659007F007E7A1206388F1B2204
:03000E00AF1B2203
:100089006100000000316253C4F5A697B988DBEA24
:100099007D4C1F2E4372211087B6E5D4FACB98A95F
:1000A9003E0F5C6D86B7E4D5427320113F0E5D6C3F
:1000B900FBCA99A8C5F4A796013063527C4D1E2F3F
:1000C900B889DAEB3D0C5F6EF9C89BAA84B5E6D70F
:1000D900407122137E4F1C2DBA8BD8E9C7F6A5941F
:1000E90003326150BB8AD9E87F4E1D2C023360511F
:1000F900C6F7A495F8C99AAB3C0D5E6F41702312FF
:1001090085B4E7D67A4B1829BE8FDCEDC3F2A190EE
:100119000736655439085B6AFDCC9FAE80B1E2D3DE
:1001290044752617FCCD9EAF38095A6B45742716BE
:1001390081B0E3D2BF8EDDEC7B4A192806376455BE
:10014900C2F3A0914776251483B2E1D0FECF9CADCE
:100159003A0B586904356657C0F1A293BD8CDFEE9E
:1001690079481B2AC1F0A3920534675678491A2B9E
:10017900BC8DDEEF82B3E0D1467724153B0A59687E
:04018900FFCE9DAC5C
:0A045E008B248A2589268C278D281F
:100468007FFFE5281528AC27700215274C601FABC5
:10047800240526E526AA257002052514F91202DCB2
:0E0488006F2400F582E43400F583E0FF80D499
:010496002243
:10051500A2AF9200C2AF75FFA075EF028F828E83E6
:1005250075B7A575B7F1438F0175FFA075EF02ED9E
:08053500F0538FFEA20092AF0B
:01053D00229B
:10063800A2AF9200C2AF8F828E83E493FFA2009292
:01064800AF02
:01064900228E
:10053E00A2AF9200C2AF75FFA075EF028F828E83BD
:10054E0075B7A575B7F1438F0375FFA075EF02E47C
:08055E00F0538FFCA20092AFE4
:010566002272
:1005CE00E589540F4420F589438E08758D2BD28E04
:0805DE00759830E4FF02064AA3
:08034A008B248A2589268D27EA
:10035200E4F5287F0112064AE528C39527502A12A0
:100362000611AB24AA25A926AF2805288F827583FA
:10037200001202F5F599209906120670EF60F71245
:100382000670EF7004C29980CFE4FF12064AAF28CC
:010392002248
:08041F008B248A2589268D2714
:10042700E4F528E528C39527502A120611209806D7
:10043700120670EF60F7120670EF7018C298AB24BF
:10044700AA25A926AF2805288F82758300E599126A
:06045700032280CFAF2854
:01045D00227C
:0F064A00EF6006C29C438008225380F7D29C22A7
:10061100538ECF75CA4075CBB085CACC85CBCD750D
:05062100C804C2CF2255
:06067000A2CFE433FF22DB
:0300000002024DAC
:0F024D0053D9BF787FE4F6D8FD75812802029758
:03000300020803ED
:03000B0002080BDD
:03001300020813CD
:03001B0002081BBD
:03002300020823AD
:03002B0002082B9D
:030033000208338D
:03003B0002083B7D
:030043000208436D
:03004B0002084B5D
:030053000208534D
:03005B0002085B3D
:030063000208632D
:03006B0002086B1D
:030073000208730D
:03007B0002087BFD
:03008300020883ED
:09018D00010900010A000108004B
:060497001205CE75912054
:10049D001201978F21E5097013050AE50AD3940A15
:1004AD005004E5216006750A0A120582E50860E030
:0304BD00120582A3
:0204C00080DBDF
:0A0582007FFF7E79120638BF550F87
:0F058C007BFF7A0879008B228A2389241203448B
:01059B00223D
:1001970074FFF522F5237B007A00790B7D041204A6
:1001A7001FEF640460037F0022E50DD3941050070E
:1001B700E50DC3940450037F0022E50DD39404405A
:1001C700187B007A00790FE50D24FCFD12041FE56A
:1001D7000D24FC6F60037F002212000EEF650B6099
:1001E700037F00227B007A00790BE50D24FFFDE4F5
:1001F70034FFFC12045E740A250DF8E66F60037F76
:1002070000221204C28E228F23C3EE648094805092
:10021700037F012212000E8F0B050CE5232404F542
:100227000D7B007A00790B24FFFDE434FFFC1204F8
:100237005E740A250DF8A6077B007A00790BAD0DD1
:0502470012034A7F01D3
:01024C00228F
:1004C200E50C240E601324FE601224FE601124FE4B
:1004D20060102408700F0206630205670203DA0245
:0A04E200039302059C7EFF7FFF22BA
:07066300750901E4FEFF220E
:100567001205B5E50970028006C3EE940850057EB2
:0A057700FF7FFF2212053EE4FEFFA5
:010581002257
:1003DA001205B58E248F25E50D24FAF526E5097058
:1003EA00057EFF7FFF22E4F527E527C395265021E6
:1003FA00C3E5249408400E74102527F8E6FDAF25BE
:10040A00AE241205150525E5257002052405278069
:04041A00D8E4FEFF25
:01041E0022BB
:100393001205B58E248F25851026E50970057EFF8D
:1003A3007FFF22E4F527E527C395265025C3E524DF
:1003B30094084009AF25AE2412063880027F0074EA
:1003C3000E2527F8A6070525E52570020524052730
:0603D30080D4AF267E007D
:0103D9002201
:10059C00E50970057EFF7FFF227D557FFF7E791276
:0905AC000515750801E4FEFF22AB
:0605B5007B007A00790EC4
:1005BB009000011202F5FE1202DC7C002400FFEC1D
:0305CB003EFE22CF
:10025C0002066AE493A3F8E493A34003F68001F248
:10026C0008DFF48029E493A3F85407240CC8C333A3
:10027C00C4540F4420C8834004F456800146F6DF72
:10028C00E4800B0102040810204080900086E47E7C
:10029C00019360BCA3FF543F30E509541FFEE49367
:1002AC00A360010ECF54C025E060A840B8E493A32E
:1002BC00FAE493A3F8E493A3C8C582C8CAC583CA59
:1002CC00F0A3C8C582C8CAC583CADFE9DEE780BE11
:010196000068
:1002DC00BB010689828A83E0225002E722BBFE0220
:0902EC00E32289828A83E4932253
:1002F500BB010CE58229F582E5833AF583E02250BE
:1003050006E92582F8E622BBFE06E92582F8E22207
:0D031500E58229F582E5833AF583E4932221
:10032200F8BB010DE58229F582E5833AF583E8F011
:10033200225006E92582C8F622BBFE05E92582C8BD
:02034200F222A5
:060344008A838982E47344
:00000001FF
