:0E2D1800122C21E523600302128F12183D22B7
:102C210053D9BF122CAA120803122379122C451270
:102C31000856122B45122D42122A98D2AF75D2FF97
:042C410043D9402211
:102CAA00E4FFFE75FF800FBF00010EEF64144E7043
:042CBA00F575EF02BB
:012CBE0022F3
:100803005380FE75F2C375A43F75A5C075D4C97531
:0C081300D53F75D6FF75E10175E2C422E7
:10143500011800021D000002190000021B000041F6
:0314450001AA00F9
:102C450075D11375BC8075E88175BB0CE58E543F55
:102C55004440F58E7591047593F175924743E608E6
:012C6500224C
:10230F00E5187002FF22E51EAE1D7803CEC313CE73
:10231F0013D8F9FFEE8FF01209BFE51AAE19780343
:10232F00CEC313CE13D8F9FF90013FE0FBA3E0FA21
:10233F00A3E0F9EE8FF01209BFE51CAE1B7803CEB8
:10234F00C313CE13D8F9FF900142E0FBA3E0FAA329
:10235F00E0F9EE8FF01209BFE4F51DF51EF519F542
:0A236F001AF51BF51CF5187F01227A
:030853000222A3DB
:0822A300C0E0C083C082C0D07E
:1022AB00C2EDE5187055E5BBB40C11E5BD251EF567
:1022BB001EE5BE351DF51D75BB0D803FE5BBB40D91
:1022CB0011E5BD251AF51AE5BE3519F51975BB0BC8
:1022DB008029E5BBB40B21E5BD251CF51CE5BE35FE
:1022EB001BF51B75BB0C9001AAE004F0C3940840CE
:0B22FB000AE4F0751801800375BB0CAD
:09230600D0D0D082D083D0E032A7
:10144800075400000000000000015B004101A400F7
:101458004201A500004201A700004101A9FF014681
:101468000001470002480800024A03FF024C03FF3C
:0C147800024E03FF025003FF0252A1A12C
:102A980075D90875DA4C75DB4C75DC4C75DD4C75F1
:102AA800DE49E4F5F9F5FA75FB10F5FC75E91AF558
:102AB800EA75ED10F5EE75EB1AF5ECF5FD75FE040B
:0A2AC80043F61043E61075D84022D3
:0E15D80090013CEEF0A3EFF0A3ECF0A3EDF0D9
:1015E600E4A3F0A3F0E55A6003021715E4F554905E
:1015F600013CE0FEA3E0FFC3EE64809480501075CA
:101606005401C3E49FFFE49E90013CF0A3EFF090E9
:10161600013CE0FEA3E0FF7C007D101208FA900179
:101626003CEEF0A3EFF0D394F6EE64809486400A85
:1016360090013C7406F0A374F6F090013EE0FEA320
:10164600E0FFE4FCFD7B0B7A04F9F8C3120B36507D
:101656004F90013EE0FEA3E0FFEF24F5FFEE34FBE2
:10166600FEE434FFFDE434FFAB07AA06A905F890B3
:10167600013CE0FEA3E0FFEE3395E0FDFC120A0B11
:10168600C006C00790013EE0FEA3E0FBAA06E4F90F
:10169600F8D007D006120A96900140EEF0A3EFF0BC
:1016A6007559FF900140E0FEA3E0FF90013CE0FC8D
:1016B600A3E0FDD39FEC9E500BE4F557F558F55586
:1016C600F5568048C3ED9FF556EC9EF555ED240A78
:1016D600F558E43CF557C3E5559401502FC3E5563C
:1016E60094FFE55594005004AF5680027FFF8F5952
:1016F600755501755600E556240AFFE43555FEC3B7
:0F170600E5589FE5579E50048E578F58755A012E
:0117150022B1
:03081F008F5B22CA
:03085B000210DDAB
:0D10DD00C0E0C0F0C083C082C0D075D00854
:1010EA00E59054C0FFE58054064FF55CE54BF5FBEF
:1010FA00E54AF5FCE54DF5E9E54CF5EAE54FF5ED90
:10110A00E54EF5EEE551F5EBE550F5ECE549F5FD73
:10111A00E548F5FE53D8EFE54924FFFFE54834FFDB
:10112A00F5508F51F54E8F4FF54C8F4DF54A8F4B39
:10113A00AD5CAF46122BD5E546640160030212246A
:10114A00E55A601D9001A4E554F0A3E555F0A3E526
:10115A0056F0A3E557F0A3E558F0A3E559F0755A00
:10116A0000E55B600543800180035380FEE55B6018
:10117A001B9001A5E07002A3E060111208269001FD
:10118A00A9E0FEEFD39E50047F0180027F008F47C3
:10119A00E54760769001A4E07038A3E0FEA3E0FF83
:1011AA00C3E49FFF74089EC313FEEF132549F54B52
:1011BA00E5483EF54AA3E0FEA3E0FFC3E49FFF74BF
:1011CA00089EC313FEEF132549F54DE5483EF54C3D
:1011DA0080389001A5E0FEA3E0FFC3E49FFF7408F6
:1011EA009EC313FEEF132549F54FE5483EF54EA37E
:1011FA00E0FEA3E0FFC3E49FFF74089EC313FEEF63
:10120A00132549F551E5483EF550E42549F5497459
:10121A00043548F5487546008060E547604E900100
:10122A00A4E07024A3E0C313FEA3E0132549F54B01
:10123A00E5483EF54AA3E0C313FEA3E0132549F5AA
:10124A004DE5483EF54C80249001A5E0C313FEA36A
:10125A00E0132549F54FE5483EF54EA3E0C313FEDA
:10126A00A3E0132549F551E5483EF550E42549F533
:0A127A004974043548F54875460133
:0B128400D0D0D082D083D0F0D0E03278
:052BD500C0D075D0081E
:102BDA00ED6011EF600AED64C06009ED64066004FF
:0F2BEA007F0180027F00EF60065380FE75EF10C1
:032BF900D0D02217
:05082600C0D075D008F0
:10082B00E5535401FDE552C313F552E55313F5534C
:10083B00AF0DEF60066353A16352A1AF53EF60029C
:04084B0080027F01A7
:03084F00D0D022E4
:041484004101504092
:102B45007B017A017951122BFC9001517408F0A395
:102B55007412F0A3E4F0A3F0A3F0A374ECF0A3E4E3
:102B6500F0A37480F0A37401F0A3747FF0A374FF45
:022B7500F0224C
:102A5C00900196E0FCA3E0FD90015CECF0A3EDF09E
:102A6C0090019CE0FEA3E0FFAB36AA35122518902E
:102A7C00015EEEF0A3EFF07B017A017951120D6C3F
:0C2A8C00900162E0FEA3E0FF1224B122E2
:0824B100900132EEF0A3EFF000
:1024B900E53845377003FEFF22AF38AE37122908D9
:1024C900D39001A3E09F9001A2E09E40109001509B
:1024D900E0D3648094804013E014F0800E900150A2
:1024E900E0C3648094C05003E004F0900132E0FE40
:1024F900A3E0FBAA06EA3395E0F9F8900150E0FF62
:0E2509003395E0FEFDFC120A0B7806120B5D06
:0125170022A1
:102BFC0090000BE4F5F01209DE90000DE4F5F012F4
:102C0C0009DE900013120C4F0000000090000FE43E
:052C1C00F5F00209DEE5
:0B0D6C00900132EBF0A3EAF0A3E9F0E5
:100D7700900132E0FBA3E0FAA3E0F990000D12091D
:100D870087FFAEF0EE3395E0FDFCC004C005C0065A
:100D9700C00790000B120987FFAEF0EE3395E0FD18
:100DA700FCD003D002D001D000C3EF9BFFEE9AFE28
:100DB700ED99FDEC98FC900135120C12900132E090
:100DC700FBA3E0FAA3E0F9900001120987FFAEF058
:100DD700EE3395E0FDFC900135E0F8A3E0F9A3E0E0
:100DE700FAA3E0FB120A0B900139120C12900132A0
:100DF700E0FBA3E0FAA3E02413F9E43AFAC003C046
:100E070002C001120B84C004C005C006C0079001D0
:100E170032A3E0FAA3E0F9900003120987FFAEF0CE
:100E2700EE3395E0FDFC900135E0F8A3E0F9A3E08F
:100E3700FAA3E0FB120A0BA804A905AA06AB07D080
:100E470007D006D005D004EF2BFFEE3AFEED39FDB3
:100E5700EC38FCD001D002D003120BD4900132E061
:100E6700FBA3E0FAA3E0F9900013120BA412085EAB
:100E7700F9F8120B5D900145120C12900132E0FB5C
:100E8700A3E0FAA3E0F9900009120987FFAEF0EE9C
:100E97003395E0FDFC900145E0F8A3E0F9A3E0FA03
:100EA700A3E0FBD3120B36402F900132E0FBA3E007
:100EB700FAA3E0F9900009120987FFAEF0EE339527
:100EC700E0FDFC12085EF9F8120B71900132A3A342
:100ED700E0F9900013120BEE900132E0FBA3E0FA69
:100EE700A3E0F9900007120987FFAEF0EE3395E013
:100EF700FDFC900145E0F8A3E0F9A3E0FAA3E0FBCD
:100F0700C3120B36502F900132E0FBA3E0FAA3E0A7
:100F1700F9900007120987FFAEF0EE3395E0FDFC6C
:100F270012085EF9F8120B71900132A3A3E0F99051
:100F37000013120BEE900132E0FBA3E0FAA3E0F9F5
:100F470090000F120987FFAEF0EE3395E0FDFCC06D
:100F570004C005C006C00790000D120987FFAEF058
:100F6700EE3395E0FDFCD003D002D001D000C3EFF3
:100F77009BFFEE9AFEED99FDEC98FCC004C005C0FE
:100F870006C007900132E0FBA3E0FAA3E0F9900066
:100F970005120987FFAEF0EE3395E0FDFCD003D0D4
:100FA70002D001D000120A0B90013D120C129001E1
:100FB70032E0FBA3E0FAA3E0F990000D120987FFE6
:100FC70090000FE5F08FF01209DE900013120BA4CA
:100FD700900139E0F8A3E0F9A3E0FAA3E02FFFEAD4
:100FE7003EFEE93DFDE83CFCA3E0F8A3E0F9A3E001
:100FF700FAA3E02FFFEA3EFEE93DFDE83CFCA31221
:101007000C12900141E0FCA3E0FDA3E0FEA3E0FF8A
:10101700900132E0FBA3E0FAA3E0F912085EF9F8C9
:10102700120B5D900141120C12900132E0FBA3E01C
:10103700FAA3E0F9900009120987FFAEF0EE3395A5
:10104700E0FDFC900141E0F8A3E0F9A3E0FAA3E09A
:10105700FBD3120B364019900132E0FBA3E0FAA351
:10106700E0F9900009120987FF900011E5F0806010
:10107700900132E0FBA3E0FAA3E0F9900007120920
:1010870087FFAEF0EE3395E0FDFC900141E0F8A359
:10109700E0F9A3E0FAA3E0FBC3120B365019900165
:1010A70032E0FBA3E0FAA3E0F9900007120987FFFB
:1010B700900011E5F08019900141A3A3E0FEA3E0A1
:1010C700FF900132E0FBA3E0FAA3E0F9900011EEF4
:0510D7008FF01209DE9C
:0110DC0022F1
:041488004101AB0073
:10237900900130E4F0A37425F0A3E4F0A37400F015
:10238900A37421F0A3747AF0A37400F0900130745F
:10239900FFF5F012094645F06026900135E475F025
:1023A90001120946AFF0FE122C7E900132E0FBA328
:1023B900E475F001120946A9F0FAEF1208C680CCBB
:1023C9007B007A0079217D247C001229DAEFB5455A
:0723D900030223E112257F3E
:0123E00022DA
:1021B800900140E4F0A37425F0A3E4F0A37400F0C8
:1021C800A37421F0A3747AF0A37400F053D9BF5319
:1021D80080FEC2AF7B007A0079217D247C00122921
:1021E800DA8F45900145E0FEA3E0FF122BA690018F
:1021F8004074FFF5F012094645F06026900145E469
:1022080075F001120946AFF0FE900142E0FBA3E42D
:1022180075F001120946A9F0FA12085EFD122B7733
:0522280080CC75EF10F1
:01222D00228E
:0E2D26009001ABE0600714F070031221B82298
:072D65009001AB7464F02241
:102AD200D3E52D952FE52E6480F8E52C648098408F
:0D2AE200047F0180027F008F29E529601A22
:102AEF00900136E52CF0A3E52DF0852E2C852F2DAA
:0A2AFF00900136E0F52EA3E0F52F5C
:032B0900022D6535
:10257F007521FFE4F522F523752440F525F526F5A1
:10258F0027F528F529752A08752B98752C80752D38
:10259F00A8752E7F752F58F530F531753202F5334A
:1025AF00F534F5357536327537057538DC75390103
:1025BF00753AC0F53BF53C753DFBF53E753F09F5AA
:0E25CF0040F5417542707543ECF5440221B8A9
:1023E1007B007A00792C90013CE530F0E531122632
:1023F1008DC0077B007A00793090013C747FF074C6
:102401005812268DD0E02FFEC0067B007A00792E6F
:1024110090013C747FF0A37458F0AD31AC301226BA
:1024210093D0E02FFEC0067B007A00793390013C07
:10243100E52EF0A3E52FF0AD2DAC2C122693D0E0C4
:072441002FFF60031221B818
:012448002271
:06268D00A3F07DA87C8093
:10269300E490013EF012095CC39DEC6480F8E5F020
:1026A300648098500EAF05EC8FF01209BF90013E85
:1026B3007401F012095CFF90013CE0FCA3E0FDC350
:1026C3009FE5F06480F8EC648098500CEC8DF01278
:0D26D30009BF90013E7401F090013EE0FF50
:0126E00022D7
:102B7700A2AF9200C2AF75FFA075EF028E638F649C
:102B870075B7A575B7F1438F0175FFA075EF02857E
:0E2B97006482856383EDF0538FFEA20092AF3F
:012BA500220D
:102C7E00A2AF9200C2AF8E5D8F5E8F828E83E49381
:052C8E00FFA20092AF5F
:012C9300221E
:102BA600A2AF9200C2AF75FFA075EF028E638F646D
:102BB60075B7A575B7F1438F0375FFA075EF02854D
:0E2BC6006482856383E4F0538FFCA20092AF1B
:012BD40022DE
:10183D00E4900130F0A3F0A3F0A3F0A3F0A3F0A384
:10184D00F0A3F0A3F0A3F0A3F0A3F07F0112081F03
:10185D00E4F5D37B0190013F04F0A37401F0A37470
:10186D0032F0A3EBF0A37401F0A37434F07A017994
:10187D003012230F122D5AEF60D690013BE0146009
:10188D0045147003021915240260030219459001D5
:10189D0034E0FCA3E0FD7F787EEC1215D89001308A
:1018AD00E0FEA3E0FF9001417401F0A37401F0A3E9
:1018BD00743AF07B017A01793612222EEF60919005
:1018CD00013B74018039900134E0FCA3E0FD7F8879
:1018DD007E131215D8900130E0FEA3E0FF90014178
:1018ED007401F0A37401F0A3743AF07B017A0179CD
:1018FD003812222EEF700302185D90013B7402F036
:10190D00E490013AF002185D900134E0FCA3E0FD93
:10191D00E4FFFE1215D890013AE004F0C394C850CC
:10192D000302185D900136E0FEA3E0FFA3E0FCA3E7
:10193D00E0FD12213F02185DE490013BF002185DBD
:10222E0090013EEBF0A3EAF0A3E9F090013EE0FB53
:10223E00A3E0FAA3E0F912095CFDACF0240AFBE47A
:10224E003CFAD3EF9BEE9A500FED24F6FDEC34FFE3
:10225E00FCC3EF9DEE9C5022900141E0FBA3E0FAFF
:10226E00A3E0F9E41208C690013EE0FBA3E0FAA356
:10227E00E0F9EE8FF01209BF8018900141E0FBA348
:10228E00E0FAA3E0F974011208A4C394C840037FD6
:05229E0001227F002277
:10213F0090013CEEF0A3EFF0A3ECF0A3EDF0D39FF2
:10214F00EC9E403090013CE0FEA3E0FF8E26F52789
:10215F0090013FE09FFF90013EE09EAB07FAE4F94C
:10216F00F8FF7EC07DFF7C03120A968E248F25E434
:10217F00F528802F90013EE0FEA3E0FF8E26F52785
:10218F00C390013DE09FFF90013CE09EAB07FAE456
:10219F00F9F8FF7EC07DFF7C03120A968E248F25EF
:0921AF007528017523010221B815
:10148C0041016800540169000000000000000000E8
:10149C00000000000000000000000041017D004140
:0714AC00017E0041017F00F9
:10128F00E4F55DF55EF55FF560F561F562E4F5D3C4
:10129F0090013FF0A37400F0A3745FF0A3E4F0A3F8
:1012AF007400F0A37461F07B007A00795D12230F54
:0612BF00EF70030213585A
:1012C5009001A0E0FEA3E0FFC394FFEE947F5002DF
:1012D50080047E7F7FFF900130EEF0A3EFF07B016D
:1012E5007A017930900137E4F0A37411F0AD62AC66
:1012F50061121FAB900130E0FFA3E09001A0CFF099
:10130500A3EFF0A3E0FEA3E0FFC394FFEE947F50AC
:101315000280047E7F7FFF900130EEF0A3EFF07B2B
:10132500017A017930900137E4F0A3744CF0AD6097
:10133500AC5F121FAB900130E0FFA3E09001A2CF9C
:10134500F0A3EFF0AF5EAE5D121DFE900198EEF0DA
:03135500A3EFF013
:09135800122D5AEF700302129CE1
:1013610012282B122D26900168E004F0C39402503C
:101371000302129CE4F0121B437B017A01799690DF
:101381000194E0FCA3E0FD900137E4F0A37411F0B7
:10139100121FAB7B017A01799A900198E0FCA3E0DE
:1013A100FD900137E4F0A37480F0121FAB7B017A4A
:1013B10001799C90019AE0FCA3E0FD900137E535AD
:1013C100F0A3E536F0121C0390019CE0FEA3E0FFC0
:1013D10012278790019EEEF0A3EFF0122A5C900194
:1013E10030EEF0A3EFF0E528900130600EE0FEA3AF
:1013F100E0FFC3E49FFFE49EFE8005E0FEA3E0FF63
:101401009001A0E0FCA3E0FD1215D89001A0E0FE40
:10141100A3E0FFE4FCFD7B5E7A03F9F8C3120B360F
:10142100500A122D6CEF70047F0180027F001208B8
:011431001F9B
:0314320002129C07
:101DFE00E4FCFDC006C007AE26AF27AB07AA06EA75
:101E0E003395E0F9F8D007D006C3EF9BF566EE9A4E
:101E1E00F565ED99F564EC98F563AE24AF25EE33D8
:101E2E0095E0FDFCAB66AA65A964A863120A0B785F
:101E3E000A120B5DE42FF566EE3480F565ED34FF86
:101E4E00F564EC34FFF563E47FFF7E7FFDFCAB664B
:101E5E00AA65A964A863D3120B3640057E7F7FFF67
:101E6E00227F017E807DFF7CFFAB66AA65A964A8F8
:101E7E0063C3120B3650057E807F0122AE65AF66BE
:011E8E002231
:08278700900132EEF0A3EFF027
:10278F0090017DE0FD25E02469F582E43401F583B5
:10279F00E0F563A3E0F564ED25E02469F582E43408
:1027AF0001F583EEF0A3EFF090017DE004F0C39408
:1027BF000A4002E4F0AE63AA06900132E0FEA3E005
:0927CF00FFC3EF9564FFEE9AFED2
:0127D80022DE
:101B430090017EE07010900194E530F0A3E531F050
:101B530090017E7401F090017FE004F0C3940A5079
:041B630003021C025B
:101B6700900192E0FEA3E0FBAA06EA3395E0F9F8BC
:101B7700A3E0FEA3E0FFEE3395E0FDFCC3EF9BFF80
:101B8700EE9AFEED99FDEC98FC900132120C12AE24
:101B97002AAF2BE4FCFD900132E0F8A3E0F9A3E0C3
:101BA700FAA3E0FBC3120B365028AE2AAF2BE4FC96
:101BB700FD120B28900132E0F8A3A3A3E0D3120B88
:101BC70036400F900192E0FFA3E0A3CFF0A3EFF020
:101BD7008024900132E0FCEC335006AE2AAF2B8014
:101BE70009C3E4952BFFE4952AFE900195E02FF0B9
:0B1BF700900194E03EF0E490017FF0CC
:011C020022BF
:03080000021E8F46
:0F1E8F0053D9BF787FE4F6D8FD75817B021ED949
:1014B3006100000000316253C4F5A697B988DBEAE6
:1014C3007D4C1F2E4372211087B6E5D4FACB98A921
:1014D3003E0F5C6D86B7E4D5427320113F0E5D6C01
:1014E300FBCA99A8C5F4A796013063527C4D1E2F01
:1014F300B889DAEB3D0C5F6EF9C89BAA84B5E6D7D1
:10150300407122137E4F1C2DBA8BD8E9C7F6A594E0
:1015130003326150BB8AD9E87F4E1D2C02336051E0
:10152300C6F7A495F8C99AAB3C0D5E6F41702312C0
:1015330085B4E7D67A4B1829BE8FDCEDC3F2A190B0
:101543000736655439085B6AFDCC9FAE80B1E2D3A0
:1015530044752617FCCD9EAF38095A6B4574271680
:1015630081B0E3D2BF8EDDEC7B4A19280637645580
:10157300C2F3A0914776251483B2E1D0FECF9CAD90
:101583003A0B586904356657C0F1A293BD8CDFEE60
:1015930079481B2AC1F0A3920534675678491A2B60
:1015A300BC8DDEEF82B3E0D1467724153B0A596840
:0415B300FFCE9DAC1E
:1029DA00900147EBF0A3EAF0A3E9F0A3ECF0A3ED32
:0129EA00F0FC
:1029EB007FFF90014A74FFF5F012094645F0602114
:1029FB00900147E0FBA3E475F001120946A9F0FA38
:102A0B0012085E6F2400F582E43400F583E0FF804A
:012A1B00D1E9
:012A1C002297
:102A1D00756C01756D01756E00E4F571F570F56FEE
:102A2D00757220757301757401757520F578F577DC
:102A3D00F576757910E589540F4420F589438E0894
:0F2A4D00758D2BD28E759830D2ACE4FF022D0917
:101F1E00E4900136F0C2ACE578C395795027AB73E7
:101F2E00AA74A975857682758300EF1208D8057894
:101F3E000576E576C3957940047F008002AF768FF3
:0F1F4E00767F0180027F00900136EFF0309C46D5
:101F5D00E578D39400402CAB73AA74A9758577826C
:101F6D00758300120877900137F015780577E577BE
:101F7D00C3957940047F008002AF778F777E007F15
:101F8D000180047E007F00EF4E600B7F01122D0952
:061F9D00900137E0F59908
:071FA300D2AC900136E0FF13
:011FAA002214
:0B26E100900132EBF0A3EAF0A3E9F057
:1026EC00E4FEC2ACE571D394004027AB6CAA6DA993
:1026FC006E857082758300120877FE15710570E582
:10270C0070C3957240047D008002AD708D707D01A8
:10271C0080027D00AF05D2AC900132E0FBA3E0FA61
:07272C00A3E0F9EE1208C65C
:012733002283
:03082300021D694A
:101D6900C0E0C0F0C083C082C0D075D01030982DBB
:101D7900C298E571C395725024AB6CAA6DA96E85A2
:101D89006F82758300E5991208D80571056FE56FB3
:101D9900C3957240047F008002AF6F8F6F30994AFC
:101DA900C299E578D39400402CAB73AA74A97585C0
:101DB900778275830012087790014FF015780577BF
:101DC900E577C3957940047F008002AF778F777EEE
:101DD900007F0180047E007F00EF4E600890014F74
:0A1DE900E0F5998005E4FF122D09D2
:0B1DF300D0D0D082D083D0F0D0E032FE
:0F2D0900EF6006C29C438008225380F7D29C22C1
:0E2D3400536572766F2C312E31342C723200C2
:0B15B700017B00017A0142018000006E
:03085600022A1D56
:10282B00E4F5637482257BF9E43401FA7B0112260B
:10283B00E1EF602F057B756301E57BC3940340E3F8
:10284B00900184E0FFD394105014EFC39404500212
:10285B00800CE57BC39F40CBE4F5D31220BBE4F5A2
:0E286B007B80C0E5637002F57BE4FF0227343A
:032D6C00AF7A2219
:10273400EF600AE4900180F0A3F0537AFE900180E8
:10274400E475F001120930FEC3E5F094E8EE940359
:1027540040309001807403F0A374E8F0E532B402D1
:1027640012437A0190019CE0FFA3E0900192CFF024
:10277400A3EFF0E532B4010A900192E533F0A3E54A
:0227840034F02F
:012786002230
:1020BB0074FF900132F0A3F0122C94EF60757B014A
:1020CB007A017982900184E024FFFDE434FFFC1255
:1020DB0029DA900184E02481F582E43401F583E070
:1020EB006F70507F01122734122879900132EEF075
:1020FB00A3EFF0C3EE648094804038900182E52119
:10210B00F0A3E004F0900132A3E02404900184F0EA
:10211B007B017A017982E024FFFDE434FFFC122974
:10212B00DA900184E02481F582E43401F583EFF049
:03213B00122B0C58
:01213E00227E
:102B0C00E4900134F0A3F0900184E0FFC390013510
:102B1C00E09F7480F8900134E0648098501AE4755A
:102B2C00F001120946FE748225F0F58274013EF51F
:082B3C0083E0FF121F1E80CF91
:012B4400226E
:102C9400900182E0FF600865216004EFB522047FA3
:062CA4000180027F002206
:10287900900183E0120C73289F0028A20228A5105A
:1028890028AA1228AD2028B03028B33228B6382813
:10289900B9F0000028BC0226380227D9122C66801C
:1028A90012022C66022CE7021716021CB70225DD5C
:0828B900022D4F7EFF7FFF227C
:102638007BFF7A2D7934900134EBF0A3EAF0A3E91B
:10264800F0122CBF900137EFF07E0CC39E5003743C
:102658000CF0900134E0F9A3E0FAA3E090013BC943
:10266800F0A3EAF0A3E9F0900137E0FF90013EE41F
:10267800F0A3EFF07B017A017985122449900137A4
:04268800E0FF7E00F1
:01268C00222B
:1027D90090019CE0FEA3E0FF12194D7A0179851260
:1027E9002CF87B017A01798790019EE0FCA3E0FD3A
:1027F900122CFE9001A0E0FEA3E0FF12294F7A01FE
:102809007989122CF89001A2E0FEA3E0FF1228C1F9
:10281900AC06AD077B017A01798B122CFE7E007F15
:02282900082283
:102C66007B017A017985122CD4122035900192EEDF
:082C7600F0A3EFF0E4FEFF22E1
:102CE700900189E0F521A3E0F522122D65E4FEFFAE
:012CF70022BA
:10171600E4900134F0A3F0900185E0B4100040039A
:10172600021822901730F828287302176002176CE7
:1017360002177802178502179202179F0217AB024B
:1017460017B60217C20217CE0217DA0217E60217F9
:10175600F20217FE02180A021816900134E4F0A3EA
:10176600E523F0021827900134E4F0A3E529F002FE
:101776001827900134E52AF0A3E52BF002182790EC
:101786000134E52CF0A3E52DF0021827900134E58D
:101796002EF0A3E52FF0021827900134E530F0A3D0
:1017A600E531F0807C900134E4F0A3E532F08071FD
:1017B600900134E533F0A3E534F08065900134E51B
:1017C60035F0A3E536F08059900134E537F0A3E50E
:1017D60038F0804D900134E539F0A3E53AF08041C8
:1017E600900134E53BF0A3E53CF08035900134E50B
:1017F6003DF0A3E53EF08029900134E53FF0A3E5F6
:1018060040F0801D900134E541F0A3E542F08011DF
:10181600900134E543F0A3E544F080057EFF7FFFA9
:10182600227B017A017985900134E0FCA3E0FD1268
:061836002CFE7E007F0283
:01183C002289
:101CB7007B017A017986122CD4900185E0B410005B
:101CC7004003021D5D901CD3F8282873021D0302F0
:101CD7001D07021D0B021D11021D17021D1D021DEE
:101CE70023021D27021D2D021D33021D39021D3F30
:101CF700021D45021D4B021D51021D578F23805B9C
:101D07008F2980578E2A8F2B80518E2C8F2D804BB9
:101D17008E2E8F2F80458E308F31803F8F32803BC4
:101D27008E338F3480358E358F36802F8E378F38B0
:101D370080298E398F3A80238E3B8F3C801D8E3DC4
:101D47008F3E80178E3F8F4080118E418F42800BD0
:101D57008E438F4480057EFF7FFF22122D65E4FEB0
:011D6700FF7C
:011D68002258
:1025DD00900185E014602914603214603B1460444E
:0B25ED0024047043437A02E529603C9F
:1025F800900134E52EF0A3E52FF0852C2E852D2FA4
:032608009001340A
:10260B00800390019CE0F52CA3E0F52D801B90013D
:10261B009CE0F530A3E0F531800F90019CE0F52EA6
:0D262B00A3E0F52F8003122AD2E4FEFF2267
:0B2D4F005380FE75EF107EFF7FFF2217
:062CF800AC06AD077B01F4
:0B2CFE00ED1208C6EC9000010208D89F
:102CD400900001120877FE12085E7C002400FFECCD
:032CE4003EFE228F
:0D2D4200538ECF75CA0D75CBF075C80422F5
:0B2D5A0030CF05C2CF7F01227F002296
:1015C2005201920000000000000000000000000034
:0515D200000000000014
:10203500E5296009C3E49FFFE49EFE8000EE339529
:10204500E08F678E66F565F564AC64EC335014AECD
:1020550030AF31EE3395E0FDFCC006C007AE2CAFC6
:102065002D8012AE2EAF2FEE3395E0FDFCC006C0DD
:1020750007AE30AF31AB07AA06EA3395E0F9F8D0E1
:1020850007D006C3EF9BFFEE9AFEED99FDEC98FC99
:102095008F6B8E6A8D698C68AB67AA66A965A86423
:1020A500120A0B780F120B5DAB07AA06AE30E531AD
:0520B5002BFFEE3AFED6
:0120BA002203
:04194D008F828E8374
:10195100AE30AF31EE3395E0FDFCA804A905AA062F
:10196100AB07AE83AF82EE3395E0FDFCC3EF9BF591
:1019710067EE9AF566ED99F565EC98F564E4FFFE7E
:10198100FDFCAB67AA66A965A864D3120B36401BA0
:10199100AE30AF31AB07AA06EA3395E0F9F8AE2EC7
:1019A100EE3395E0FDFCC3E52F8019AE2CAF2DABD6
:1019B10007AA06EA3395E0F9F8AE30EE3395E0FD7B
:1019C100FCC3E5319BFFEE9AFEED99FDEC98FCC05E
:1019D10004C005C006C007E47FFF7E7FFDFCAB6746
:1019E100AA66A965A864120A0BD003D002D001D05F
:1019F100001229968F678E668D658C64E47FFF7E69
:101A01007FFDFCAB67AA66A965A864D3120B3640BB
:101A11000DE47567FF75667FF565F56480227F01CA
:101A21007E807DFF7CFFAB67AA66A965A864C312AF
:101A31000B36500C7567017566807565FF7564FF1F
:101A4100E529AF67AE666009AD65AC64120B28800D
:011A51000094
:011A52002271
:1028C100E4FCFD7B587A0FF9F8120A0BE47BFF7ADE
:1028D1000FF9F8120A96900134120C12E4FFFE7DF2
:1028E10001FC900134E0F8A3E0F9A3E0FAA3E0FBD6
:1028F100C3120B4C500C900134A3A3E0FEA3E0FFE4
:0629010080047EFF7FFF51
:0129070022AD
:10290800E4FCFD7BFF7A0FF9F8120A0BE47B587A96
:102918000FF9F8120A96900134120C12E4FFFE7DAA
:1029280001FC900134E0F8A3E0F9A3E0FAA3E0FB8E
:10293800C3120B4C500C900134A3A3E0FEA3E0FF9C
:0629480080047EFF7FFF0A
:01294E002266
:10294F00E4FCFD7BBB7A5CF9F8120A0BE47BFF7A9F
:10295F000FF9F8120A96900134120C12E4FFFE7D63
:10296F0001FC900134E0F8A3E0F9A3E0FAA3E0FB47
:10297F00C3120B4C500C900134A3A3E0FEA3E0FF55
:06298F0080047EFF7FFFC3
:01299500221F
:101FAB00900135ECF0A3EDF0900132EBF0A3EAF0E9
:101FBB00A3E9F012095CAEF0FBAA06EA3395E0F94F
:101FCB00F8900137E0FEA3E0FFC3E49FFF74019E8E
:101FDB00FE3395E0FDFC120A0BC004C005C006C021
:101FEB0007900135E0FEA3E0FBAA06EA3395E0F982
:101FFB00F8A3E0FEA3E0FFEE3395E0FDFC120A0B25
:10200B00D003D002D001D000EF2BFFEE3AFEED391A
:10201B00FDEC38FC7808120B5D900132E0FBA3E07D
:0A202B00FAA3E0F9EE8FF00209BFFE
:101A530090013DEEF0A3EFF0A3ECF0A3EDF0A3EBC8
:071A6300F0A3EAF0A3E9F093
:101A6A0090013FE0FEA3E0FBAA0690013DE0FEA341
:101A7A00E0FFEE3395E0FDFCC3EF9BFFEE9AFEED2F
:101A8A009400FDEC9400FC900147120C1290013F67
:101A9A00E0FEA3E0FBAA06E4F9F890013DE0FEA30C
:101AAA00E0FFEE3395E0FDFCEF2BFFEE3AFEE93D59
:101ABA00FDE83CFC90014B120C127F017E807DFFF9
:101ACA007CFF900147E0F8A3E0F9A3E0FAA3E0FB6A
:101ADA00C3120B36500A900147120C1EFFFF8001F9
:101AEA00E47FFF7E7FFDFC90014BE0F8A3E0F9A3C1
:101AFA00E0FAA3E0FBD3120B36400A90014B120C1A
:101B0A001E00007FFF900147A3A3E0F9A3E0FF9026
:101B1A000141E0FBA3E0FAA3E0C98FF01209BF90EC
:101B2A00014BA3A3E0F9A3E0FF900144E0FBA3E08B
:091B3A00FAA3E0C98FF00209BF13
:101C0300900135ECF0A3EDF0900132EBF0A3EAF094
:031C1300A3E9F052
:101C1600E4900139F0A3F0A3F0A3F012095CFFAE43
:101C2600F0900137E0FCA3E0FD9001447401F0A3BD
:101C36007401F0A3743BF07B017A017939121A53CF
:101C460090013BE0FEA3E0FF900135E0FCA3E0FD40
:101C5600D39FEE6480F8EC648098401CA3E0FEA35A
:101C6600E0FFED9FFFEC9EF9900132E0FBA3E0FA66
:101C7600A3E0C98FF01209BF900139E0FEA3E0FF8F
:101C8600900135E0FCA3E0FDC39FEE6480F8EC64B0
:101C96008098501CA3E0FEA3E0FFED2FFFEC3EF979
:101CA600900132E0FBA3E0FAA3E0C98FF01209BF6E
:011CB600220B
:08251800900132ECF0A3EDF09C
:10252000E4A3F0A3F0A3F0A3F0AC02AD037B019011
:10253000014404F0A37401F0A37436F07A017934F5
:10254000121A53900134E0FEA3E0FF900132E0FC48
:10255000A3E0FDC39FEE6480F8EC648098500122F4
:10256000900136E0FEA3E0FFD3ED9FEE6480F8EC2F
:0E257000648098400122900132E0FEA3E0FF5B
:01257E00223A
:101E9E00022D18E493A3F8E493A34003F68001F215
:101EAE0008DFF48029E493A3F85407240CC8C33345
:101EBE00C4540F4420C8834004F456800146F6DF14
:101ECE00E4800B0102040810204080901435E47E5B
:101EDE00019360BCA3FF543F30E509541FFEE49309
:101EEE00A360010ECF54C025E060A840B8E493A3D0
:101EFE00FAE493A3F8E493A3C8C582C8CAC583CAFB
:101F0E00F0A3C8C582C8CAC583CADFE9DEE780BEB2
:0115D7000013
:10085E00BB010689828A83E0225002E722BBFE0298
:09086E00E32289828A83E49322CB
:10087700BB010CE58229F582E5833AF583E0225036
:1008870006E92582F8E622BBFE06E92582F8E22280
:0D089700E58229F582E5833AF583E493229A
:1008A400BB010989828A83F8E028F022500327F7E4
:1008B40022BBFE05F8E328F3228A838982F8E493B5
:0208C4002822E8
:1008C600BB010689828A83F0225002F722BBFE0111
:0208D600F3220B
:1008D800F8BB010DE58229F582E5833AF583E8F056
:1008E800225006E92582C8F622BBFE05E92582C802
:0208F800F222EA
:1008FA00C2D5EC30E709B2D5E4C39DFDE49CFCEE19
:10090A0030E715B2D5E4C39FFFE49EFE120C99C3EB
:10091A00E49DFDE49CFC8003120C9930D507C3E4E6
:06092A009FFFE49EFE2287
:10093000C5F0F8A3E028F0C5F0F8E5821582700252
:060940001583E038F022EF
:10094600A3F8E0C5F025F0F0E58215827002158364
:06095600E0C838F0E822C1
:10095C00BB010A89828A83E0F5F0A3E02250068766
:10096C00F009E71922BBFE07E3F5F009E319228928
:0B097C00828A83E493F5F0740193225B
:10098700BB0110E58229F582E5833AF583E0F5F0AE
:10099700A3E0225009E92582F886F008E622BBFE8B
:1009A7000AE92582F8E2F5F008E222E5832AF583D1
:0809B700E993F5F0A3E9932296
:1009BF00BB010A89828A83F0E5F0A3F0225006F783
:0F09CF0009A7F01922BBFE06F3E5F009F3192280
:1009DE00F8BB0111E58229F582E5833AF583E8F04B
:1009EE00E5F0A3F0225009E92582C8F608A6F02208
:0D09FE00BBFE09E92582C8F2E5F008F222EF
:100A0B00E88FF0A4CC8BF0A42CFCE98EF0A42CFC8A
:100A1B008AF0EDA42CFCEA8EF0A4CDA8F08BF0A408
:100A2B002DCC3825F0FDE98FF0A42CCD35F0FCEB67
:100A3B008EF0A4FEA9F0EB8FF0A4CFC5F02ECD392C
:0F0A4B00FEE43CFCEAA42DCE35F0FDE43CFC2299
:100A5A0075F008758200EF2FFFEE33FECD33CDCC53
:100A6A0033CCC58233C5829BED9AEC99E5829840D6
:100A7A000CF582EE9BFEED9AFDEC99FC0FD5F0D6B3
:100A8A00E4CEFBE4CDFAE4CCF9A88222B800C1B9DD
:100A9A000059BA002DEC8BF084CFCECDFCE5F0CB1B
:100AAA00F97818EF2FFFEE33FEED33FDEC33FCEB54
:100ABA0033FB10D703994004EB99FB0FD8E5E4F90F
:100ACA00FA227818EF2FFFEE33FEED33FDEC33FCFC
:100ADA00C933C910D7059BE99A4007EC9BFCE99AF0
:100AEA00F90FD8E0E4C9FAE4CCFB2275F010EF2F35
:100AFA00FFEE33FEED33FDCC33CCC833C810D70735
:100B0A009BEC9AE899400AED9BFDEC9AFCE899F86F
:0E0B1A000FD5F0DAE4CDFBE4CCFAE4C8F92202
:10299600C2D5E830E70FB2D5E4C39BFBE49AFAE46C
:1029A60099F9E498F8EC30E717B2D51229CC120A57
:1029B60096E4C39BFBE49AFAE499F9E498F8800359
:1029C600120A9630D50DE4C39FFFE49EFEE49DFDFA
:0429D600E49CFC225F
:0E0B2800C3E49FFFE49EFEE49DFDE49CFC22DE
:100B3600EB9FF5F0EA9E42F0E99D42F0EC6480C836
:060B460064809845F022D6
:100B4C00EB9FF5F0EA9E42F0E99D42F0E89C45F0FF
:010B5C002276
:100B5D00E86010ECA2E713FCED13FDEE13FEEF13AE
:040B6D00FFD8F0229B
:100B7100E8600FEFC333FFEE33FEED33FDEC33FCE2
:030B8100D8F12286
:100B8400BB010789828A83020CFA5005E9F8020C3A
:100B9400EEBBFE05E9F8020D0689828A83020D1276
:100BA400BB010DE58229F582E5833AF583020CFA4F
:100BB4005007E92582F8020CEEBBFE07E92582F80E
:100BC400020D06E58229F582E5833AF583020D12CA
:100BD400BB010789828A83020C125005E9F8020DD1
:0A0BE40022BBFE05E9F8020D2E22E7
:100BEE00BB010DE58229F582E5833AF583020C12ED
:100BFE005007E92582F8020D22BBFE07E92582F88F
:040C0E00020D2E2283
:0C0C1200ECF0A3EDF0A3EEF0A3EFF02255
:100C1E00A8828583F0D083D082120C35120C351247
:100C2E000C35120C35E473E493A3C583C5F0C5836C
:100C3E00C8C582C8F0A3C583C5F0C583C8C582C820
:010C4E002283
:100C4F00BB010DE58229F582E5833AF583020C1E7F
:100C5F005007E92582F8020D3ABBFE07E92582F815
:040C6F00020D5322FD
:100C7300D083D082F8E4937012740193700DA3A310
:100C830093F8740193F5828883E473740293686024
:060C9300EFA3A3A380DF24
:10244900900138EBF0A3EAF0A3E9F0E4900140F041
:10245900A3F090013E74FFF5F012094645F0603C87
:1024690090013BE0FBA3E0FAA3E0F912085EFF90BC
:102479000138E0FBA3E0FAA3E0F9900140E475F02C
:102489000112094685F082F583EF1208D8EF60C280
:1024990090013CE475F00112093080B6900138E0F2
:0824A900FBA3E0FAA3E0F92215
:102CBF00E4FFFE12085E600C0FEF70010E09E97061
:052CCF00F20A80EF2273
:100C9900BC000BBE0029EF8DF084FFADF022E4CC3F
:100CA900F875F008EF2FFFEE33FEEC33FCEE9DEC08
:100CB900984005FCEE9DFE0FD5F0E9E4CEFD22ED4E
:100CC900F8F5F0EE8420D21CFEADF075F008EF2F98
:100CD900FFED33FD4007985006D5F0F222C398FD89
:050CE9000FD5F0EA2226
:0C0CEE00E6FC08E6FD08E6FE08E6FF2232
:0C0CFA00E0FCA3E0FDA3E0FEA3E0FF226D
:0C0D0600E2FC08E2FD08E2FE08E2FF2229
:100D1200E493FC740193FD740293FE740393FF2227
:0C0D2200ECF608EDF608EEF608EFF622FD
:0C0D2E00ECF208EDF208EEF208EFF22201
:100D3A00D083D082E493F608740193F60874029380
:090D4A00F608740393F6740473B7
:100D5300D083D082E493F208740193F2087402936F
:090D6300F208740393F2740473A6
:00000001FF
